:0400000081EF00F09C
:100008008F438F438F438F434000004040008F430E
:100018008F438F438F438F438F438F438F438F4348
:100028008F434000400040008F438F438F438F43EE
:100038008F438F438F438F438F438F438F438F4328
:100048008F438F438F438F43400040008F438F433C
:100058008F438F438F4340008F438F438F438F439A
:100068008F438F438F438F438F438F438F438F43F8
:100078008F438F438F438F4340008F438F438F437A
:100088008F438F438F438F438F438F438F438F43D8
:100098008F438F438F438F4340008F43400040007E
:1000A8008F438F438F438F438F438F438F438F43B8
:1000B8008F438F438F438F438F438F438F438F43A8
:1000C8008F438F438F438F438F438F438F438F4398
:1000D8008F438F438F438F438F438F438F438F4388
:1000E80040008F438F438F43400040004000400052
:0E00F8008F438F438F438F43FF0097EF86F0B7
:10BFBC0000F3C30001FFFFFFFFFFFFFFFFFFFFFFC9
:10BFCC00FFC3CE0CFFFFFFFFFFC3DF0CFFFFFFFF24
:10BFDC00FFFFFFFFFFFFFFFFFFFFFFFFFFFFFFFF65
:10BFEC00FFC30209FFFFFFFFFFC32D09FFFFFFFF88
:10BFFC00FFFFFFFFFFFFFFFFFFFFFFFFFFFFFFFF45
:10C00C00FFFFFFFFFFFFFFFFFFFFFFFFFFFFFFFF34
:10C01C00FFFFFFFFFFFFFFFFFFFFFFFFFFFFFFFF24
:10C02C00FFFFFFFFFFFFFFFFFFFFFFFFFFFFFFFF14
:10C03C00FFC30001FFFFFFFFFFC32302FFFFFFFF52
:10C04C00FFC3DF0CFFFFFFFFFFC31608FFFFFFFF5F
:10C05C00FFC3CE0CFFFFFFFFFFC3D90CFFFFFFFF99
:10C06C00FFFFFFFFFFFFFFFFFFFFFFFFFFFFFFFFD4
:10C07C00FFFFFFFFFFFFFFFFFFFFFFFFFFFFFFFFC4
:10C08C00FFFFFFFFFFFFFFFFFFFFFFFFFFFFFFFFB4
:10C09C00FFFFFFFFFFFFFFFFFFFFFFFFFFFFFFFFA4
:10C0AC00FFFFFFFFFFFFFFFFFFFFFFFFFFFFFFFF94
:10C0BC00FFED73008F31108FF5ED5F32028FC501EC
:10C0CC00FF00ED4C78B1201A3EC0ED393FED38F44D
:10C0DC0032038FE680280B3A038FE67FED39F4C3E9
:10C0EC009C0931F08FAF321B8F01FF00ED4C78B102
:10C0FC0028173E40CB37F2B3013E7FED4FED5FFA90
:10C10C00DC0121650AAFC3E1013EC0ED393F3E00C1
:10C11C00ED39F23E00ED39F63E7FED39FEED38FE9D
:10C12C00E6802807216B0A3E0118673E40ED39FE78
:10C13C00AFED39D2ED38D2E640281DAFED39DFED49
:10C14C0038DFB7280721760A3E0218463E00ED3943
:10C15C00DF21810A3E04183A3E00ED39DF21910AB5
:10C16C003E05182E2E300E02ED6E2E400EFFED6E9B
:10C17C002E000E12ED6E2EFF0E08ED6E3E38D3E83B
:10C18C002E000E08ED6E219A0A3E08180521A10A10
:10C19C003E09321B8F22008FCDCD0C210080221046
:10C1AC008F22178F22158F3E4932198FAF321D8F78
:10C1BC00AF211E8F061A772310FC21F08F22328FAD
:10C1CC000664AFCDDF0C10FA21040ACD16082A0044
:10C1DC008FCD1608211E0ACD1608CD6C0821008FB4
:10C1EC00CDB808CDBF08B728EBFE442830FE47CAAF
:10C1FC007203FE53CAE903FE4CCA5004FE50CA2116
:10C20C0005FE49CAFE05FE4FCA9006FE5ACA28070B
:10C21C00FE52CA5607213B0ACD160818B723CDB8D3
:10C22C0008CDC80879B72013CDB8087EB720E62A08
:10C23C00108F0180000922128F1830ED53108FCD12
:10C24C00B8087EFE2C280CB720CB218000192212B6
:10C25C008F181823CDB808CDC808CDB80879B728E1
:10C26C00B47EB7C2640213ED53128F2A108F3EF0C6
:10C27C00A56FAF32148FE5CDEC02E101100009CDB2
:10C28C00D90C20103A148FFE0238EB2A128F221090
:10C29C008FC3230222108FCDCE0CC32302CD1F08D7
:10C2AC00E521430ACD1608E1DD21008F0610CD26CD
:10C2BC000310FB21460ACD160821008F06107E23A1
:10C2CC00FE203809FE7F3005CDDF0C18053E2ECD43
:10C2DC00DF0C10EAC362083E20CDDF0C3A148FB796
:10C2EC0020203A108FBD20063A118FBC280F3E201B
:10C2FC00CDDF0CCDDF0CDD770023DD23C93E013211
:10C30C00148F3A148FFE0120E57EDD7700CD2408D2
:10C31C0023DD233A128FBDC03A138FBCC03E0232CC
:10C32C00148FC923CDB808CDC8087EB7C264027972
:10C33C00B72804ED53348F3A1B8FFE08281FFE09D3
:10C34C0028133A378FD602E67F473A378FE680B00C
:10C35C0032378F18083A378FD60232378F2A328FFE
:10C36C00F92A348FE5DD2A2E8FFD2A308F2A268F6D
:10C37C00E5ED4B288FED5B2A8F2A2C8FD9F1082AFB
:10C38C001E8FE5ED4B208FED5B228F2A248F3A36E2
:10C39C008FED473A378FED4FF1C923CDB808CDC893
:10C3AC0008CDB8087EB7C2640279B72004ED5B17DC
:10C3BC008FEBCD1F08E521460ACD1608E17EE5CDB1
:10C3CC0024083E20CDDF0CCD6C0821008FCDB808A1
:10C3DC007EB72007E12322178F18D7FE2D2007E107
:10C3EC002B22178F18CCFE2E2007E122178FC32388
:10C3FC0002CDC80879B7E1CA6402732322178F18DB
:10C40C00B123CDB808CDC808CDB8087EB7C2640238
:10C41C0079B72003110000CDCE0CCDBF08FE5328F8
:10C42C005CFE3A280DFE0D28EEFE0A28EACDCE0C55
:10C43C0018F3CD3B084F47CD3B0867814FCD3B08E8
:10C44C006F814F19CD3B08321A8F814F78B7281462
:10C45C00CD3B08F5814F3A1A8FB72005F177231899
:10C46C0001F110ECCD3B0881200A3A1A8FB7CA7C37
:10C47C0004C3230221210ACD1608C32302CDCE0CFE
:10C48C00321A8FCD3B08474FCD3B0867814FCD3BD0
:10C49C00086F814F190505052815CD3B08F5814F0F
:10C4AC003A1A8FFE312005F177231801F110EBCDEC
:10C4BC003B0881FEFF20123A1A8FFE372811FE38F6
:10C4CC00280DFE392809C37C04212E0ACD1608C379
:10C4DC002302237ECDBF08FE492804FE53200423EB
:10C4EC0032198FCDB808CDC80879B7281DD5DDE134
:10C4FC00CDB8087EFE2C201223CDB808CDC8087903
:10C50C00B72807CDB8087EB72803C36402DDE5E180
:10C51C00EB23B7ED52CD84057CB520F93A198FFE8B
:10C52C00492009214A0ACD1608C3230221580ACDF5
:10C53C001608C323020E107CB720057DB930014FBD
:10C54C000600B7ED42413A198FFE4920303E3ACDF4
:10C55C00DF0C78CD2408487ACD24087A814F7BCD26
:10C56C0024087B814FAFCD24081AF5CD2408F18126
:10C57C004F1310F579ED44CD2408C362083E53CD1A
:10C58C00DF0C3E31CDDF0C78C6034FCD24087ACDBD
:10C59C0024087A814F7BCD24087B814F1AF5CD245A
:10C5AC0008F1814F1310F5792FCD2408C3620823AD
:10C5BC00AF321C8F3A1B8FFE0820107ECDBF08FEB9
:10C5CC00572804FE53200423321C8FCDB808CDC845
:10C5DC000879B7CA6402CDB8087EB7C26402424B70
:10C5EC003A1C8FFE572832FE53284B3A1B8FFE08FD
:10C5FC00280BED78CD2408CD6208C323020E08ED7C
:10C60C0066E53A1D8F6FED6E4BED780E08E1ED6E21
:10C61C00CD2408CD6208C323020E08ED66E53A1D51
:10C62C008F6FED6E4BEDB7E30E08ED6EE1CD1F088D
:10C63C00CD6208C32302ED66CD1F08CD6208C3236B
:10C64C000223AF321C8F3A1B8FFE0820107ECDBF09
:10C65C0008FE572804FE53200423321C8FCDB80843
:10C66C00CDC80879B7CA6402D5DDE1CDB8087EFE25
:10C67C002CC2640223CDB808CDC80879B7CA6402AD
:10C68C00CDB8087EB7C26402DDE5C13A1C8FFE57F7
:10C69C002827FE53283D3A1B8FFE082805ED59C369
:10C6AC002302C50E08ED66553A1D8F6FED6EC1ED78
:10C6BC00590E086AED6EC32302DD690E08ED66E5BE
:10C6CC003A1D8F6FED6EDD4DEBEDBF0E08E1ED6E9B
:10C6DC00C32302EBED6EC323023A1B8FFE08C26428
:10C6EC000223CDB808CDC808CDB8087EB7C2640205
:10C6FC0079B728077B321D8FC323023A1D8FCD24B7
:10C70C0008CD6208C3230223CDB808CDBF08B720DB
:10C71C0006CDE607C32302EB21660BBE280D4F2383
:10C72C007EB72870790105000918F0237EFE0F20D2
:10C73C000C234E236669131ACDBF0818DEB7285494
:10C74C004E235E2356D5237E23666FCD16083E3DC1
:10C75C00CDDF0C79E607FE012008E17EE5CD24084B
:10C76C00180CE1E5237ECD24082B7ECD24083E2039
:10C77C00CDDF0CC5CD6C0821008FCDB808CDC80815
:10C78C0079B7280DC1E179FE0120037318037323D7
:10C79C0072C32302C3640221BB0A5E2356237AB3FD
:10C7AC00CA6208EBCD1608EB5E2356237E23EBFE04
:10C7BC000120077ECD2408EB18E0237ECD24082B26
:10C7CC007ECD2408EB18D37EA7C8CDDF0C2318F739
:10C7DC007CCD24087DF51F1F1F1FCD2D08F1E60F02
:10C7EC00C630FE3ADADF0CC607C3DF0CAFCD430808
:10C7FC0007070707C54FCDCE0CCDBF08FE3038114B
:10C80C00FE3A380AFE413809FE473005D607D630C5
:10C81C00B1C1C93E0DCDDF0C3E0AC3DF0C21008F28
:10C82C000600CDCE0CFE0D283AFE0A2836FE08284E
:10C83C001BFE7F2817FE2038E9FE8030E54F78FE7E
:10C84C000F30DF0479CDDF0C772318D678A728D2E8
:10C85C00052B3E08CDDF0C3E20CDDF0C3E08CDDF96
:10C86C000C18BFCD62083600C97EFE20C02318F913
:10C87C00FE61D8FE7BD0C6E0C90E001100007ECD53
:10C88C00BF08FE30382CFE3A380AFE413824FE47E9
:10C89C003020D607D6301717171717CB13CB121714
:10C8AC00CB13CB1217CB13CB1217CB13CB12230CEE
:10C8BC0018CCC9E5C521120906000909462366688A
:10C8CC00C1E3C920092509DF0C1608CE0CD90C29A7
:10C8DC0009E1F3C30001E1C323023A1B8FC9F5ED53
:10C8EC005F32378FED5732368F22248FED53228FE4
:10C8FC00ED43208FE1221E8F08F5D9222C8FED53AA
:10C90C002A8FED43288FE122268FDD222E8FFD22E8
:10C91C00308FE12B22348FED73328F3A1B8FFE0850
:10C92C00281FFE0928133A378FD605E67F473A377A
:10C93C008FE680B032378F18083A378FD6053237EA
:10C94C008F21AA0ACD1608CDE607C323023A028F1F
:10C95C0032378FED5732368F22248FED53228FE1F1
:10C96C0022208FE1221E8F08F5D9222C8FED532A1D
:10C97C008FED43288FE122268FDD222E8FFD223072
:10C98C008FED7B008FE1060A3A038FE64028022BDD
:10C99C00042B22348FED73328F3A378F90E67F471A
:10C9AC003A378FE680B032378F21B40ACD1608CDD6
:10C9BC00E607C323020D0A556E6976657273616CC6
:10C9CC00204D6F6E69746F72205A38300D0A005DFD
:10C9DC0020004572726F7220696865780D0A0045F7
:10C9EC0072726F7220737265630D0A004572726FFA
:10C9FC00720D0A00203A00203A20003A30303030D4
:10CA0C003030303146460D0A005339303330303037
:10CA1C003046430D0A005A38300D0A00484436346B
:10CA2C00313830520D0A00484436343138305A0D02
:10CA3C000A005A385331383020534C313936300DC6
:10CA4C000A005A38533138300D0A005A3238300D3A
:10CA5C000A004E53433830300D0A005253542033E1
:10CA6C0038480D0A00545241500D0A00100B1F8F0C
:10CA7C0001140B208F021A0B228F02200B248F0221
:10CA8C00260B1E8F012B0B2E8F02310B308F023693
:10CA9C000B278F013C0B288F02420B2A8F02480B6D
:10CAAC002C8F024E0B268F01530B328F02590B34F5
:10CABC008F025E0B368F01620B378F010000000076
:10CACC000041203D00204243203D00204445203DB4
:10CADC000020484C203D002046203D002020495895
:10CAEC003D002049593D000D0A41273D002042439D
:10CAFC00273D00204445273D0020484C273D002081
:10CB0C0046273D00202053503D002050433D00203F
:10CB1C00493D0020523D00410FB00B0000420FBEBA
:10CB2C000B0000430FE00B0000440FEE0B00004520
:10CB3C000F100C0000460F1E0C0000480F2C0C00B0
:10CB4C0000490F5C0C00004C0F4E0C0000500F7095
:10CB5C000C00005201378FCB0C530F780C000000E7
:10CB6C000000011F8F800C2701278F990C000000FB
:10CB7C0001218F850C2701298FA00C430FD20B00AC
:10CB8C000000000002208F820C2702288F9C0C00D2
:10CB9C00000001208F870C2701288FA30C000000B8
:10CBAC0001238F8C0C27012B8FAA0C450F020C0034
:10CBBC000000000002228F890C27022A8FA60C008D
:10CBCC00000001228F8E0C27012A8FAD0C00000073
:10CBDC00011E8F970C2701268FBA0C00000001252F
:10CBEC008F930C27012D8FB40C4C0F400C000000C0
:10CBFC00000002248F900C27022C8FB00C00000038
:10CC0C0001248F950C27012C8FB70C0000000136E6
:10CC1C008FC90C58022E8FBD0C5902308FC00C00DE
:10CC2C00004302348FC60C00005002328FC30C003C
:10CC3C00004100424300420043004445004400458B
:10CC4C0000484C0048004C00460041270042432756
:10CC5C00004227004327004445270044270045276E
:10CC6C0000484C27004827004C270046270049580D
:10CC7C000049590053500050430049005200C93A32
:10CC8C0001E0CB4728F93A00E0C93A01E0CB47C9AB
:10CC9C00F53A01E0CB4F28F9F13200E0C900000071
:10CCAC000000000000000000000000000000000078
:10CCBC000000000000000000000000000000000068
:10CCCC000000000000000000000000000000000058
:10CCDC000000000000000000000000000000000048
:10FFBC00007E306D79335B5F707F7B771F4E3D4FDA
:10FFCC0047524420414444523A253034582C444141
:10FFDC0054413A253032580D0A00575220414444BE
:10FFEC00523A253034582C444154413A2530325839
:04FFFC000D0A0000EA
:020000040001F9
:10000000F6C4AFF5F7C4B0F5F8C4B1F5F5C4B2F570
:10001000AE9AD1C485F5CFC484F5CEBA6CD0000EAB
:10002000C86E0001D4A50ED0BD0E05018425F66E64
:10003000BF0E8521F76EF86A000EF8220800F5C49D
:10004000B3F52ED0D4A306D0000E05018425D96EB9
:10005000950E20D00501840507E1E00E8519D8A48E
:1000600003D0B7C4B3F51CD0E00E85198411D8A411
:1000700003D0C7C2B3F514D0F00E855DD8A00FD061
:10008000200E845DF00E8559D8B009D0600E84250D
:10009000D96E150E8521DA6EDF50B36F01D0B369CA
:1000A000040E6419D8A41ED066A10CD084C507F52F
:1000B00085C508F5B3C509F5000E0B6E000E0A6E76
:1000C00041EC85F0050166A30DD0CD0EA96FFF0EA2
:1000D000AA6F84C5ABF585C5ACF5B3C5ADF5AE6B00
:1000E000DFEC86F0B3C5C0F40001D785D795CEA26A
:1000F000FED7C868B3D00001D4A30AD0000E050112
:100100008425D96E950E8521DA6ED0C4DFF480D0B7
:10011000E00E050185198411D8A403D0D0C4C9F21A
:1001200077D0F00E855DD8A073D0200E845DF00EE0
:100130008559D8B06DD0600E8425D96E150E8521F5
:10014000DA6ED0C4DFF4F00E855DD8A00BD0040EBB
:10015000845DF00E8559D8B005D0CAEC86F0030E48
:100160000501646F040E841946E1F00E8519D8A4C8
:1001700042D06451D8A403D006EC86F03CD064058C
:10018000D8A415D0000EB46FB4517708D96E000E04
:10019000D8A0E82A0508DA6EDF50016EB42903EC16
:1001A00085F00501B42B070EB465EED724D0020EFE
:1001B0006419D8A415D0000EB46FB4517F08D96E5D
:1001C000000ED8A0E82A0508DA6EDF50016EB429C7
:1001D00003EC85F00501B42B070EB465EED70BD008
:1001E000030E6419D8A403D0CAEC86F004D06429A5
:1001F000D8B42FEC86F0050E0501841909E1F00E44
:100200008519D8A405D065C501F50A0E03EC85F063
:10021000040E05016419D8A41ED066A10CD084C5B3
:1002200007F585C508F5D0C409F5000E0B6E010E63
:100230000A6E41EC85F0050166A30DD0E60EA96FAC
:10024000FF0EAA6F84C5ABF585C5ACF5D0C4ADF57E
:10025000AE6BDFEC86F00001D785D795B2C5F5F41B
:10026000B1C5F8F4B0C5F7F4AFC5F6F4110042C556
:10027000D9F443C5DAF4DEC4F6F4DDC4F7F4000EB5
:10028000F86E0800F550250AD8A411D142C5D9F45A
:1002900043C5DAF4DE2A000EDD22000E0501816F6F
:1002A000000E806F80C586F582698369000E536EEB
:1002B000000E0DD00501868342C5D9F443C5DAF49A
:1002C000DE2A000EDD221CD0000E536E010E526E8F
:1002D00017D042C5D9F443C5DAF4DEC4F6F4DDC460
:1002E000F7F4000EF86E0800F550466E476A475066
:1002F000000AD8A4E9D74650300AD8B4DBD7E4D7EF
:1003000052505310D8B4E5D742C5D9F443C5DAF4F6
:10031000DEC4F6F4DDC4F7F4000EF86E0800F55004
:100320002A0AD8A424D042C5D9F443C5DAF4DE2A77
:10033000000EDD2244C5D9F445C5DAF4DFC446F524
:10034000020EDE26DFC447F5000EDD2246C5D9F4D5
:1003500047C5DAF4DEC480F5DDC481F5050181AF5F
:1003600035D08681806D811FD8B0812B2FD042C5BA
:10037000D9F443C5DAF4DEC407F5DDC408F5F3ECBF
:1003800083F007C580F508C581F507D042C5D9F4CB
:1003900043C5DAF4DE2A000EDD2242C5D9F443C596
:1003A000DAF4DEC4F6F4DDC4F7F4000EF86E0800EB
:1003B000F5C446F5D00E4624476E486AFF0E482223
:1003C000485004E10A0E475CD8A0E0D742C5D9F4F2
:1003D00043C5DAF4DEC454F5DDC455F554C5F6F46E
:1003E00055C5F7F4000EF86E0800F550580AD8A469
:1003F00056D044C5D9F445C5DAF4DFC446F5020E3B
:10040000DE26DFC447F5000EDD2246C5D9F447C518
:10041000DAF4DEC448F5DDC449F548C54AF549C5F6
:100420004BF54C6A4D6A4E6A4F6A506A516A010E2A
:100430005424466E000E5520476E42C5D9F443C57C
:10044000DAF446C5DEF447C5DDF417D040C51DF526
:1004500041C51EF54AC51FF54BC520F54CC521F514
:100460004DC522F54EC523F54FC524F550C525F5DC
:1004700051C526F543EC83F0120054C5F6F455C57A
:10048000F7F4000EF86E0800F550466E476A4750C4
:10049000000AD8A404D04650580AD8B4D7D742C5C9
:1004A000D9F443C5DAF4DE2A000EDD22120042C57B
:1004B000D9F443C5DAF4DEC4F6F4DDC4F7F4000E73
:1004C000F86E0800F550026E036A40C504F541C598
:1004D00005F579EC85F0E3D7080E0001B16F000E49
:1004E0000401186F1969C968000E086F0969C768A7
:1004F000000E106F1169C8682091C290CA902093B5
:10050000C292CA922095C284CA9400930183C68283
:1005100000910181C680009B018BC68A00950185F0
:10052000C6840099BE88C6983F0E0201046F04017C
:100530000097C6962F0E436F400E446F010E456F15
:10054000000E476F4691468B468F010E0201D56F14
:10055000A00ED46FD189D18B0401009FC68E070EE7
:100560000201766F0401009DBE8CC69C260E02011E
:10057000076FD28F010E616F020E626F1F0E636FE5
:100580001E0E646F050E656F1D0E676F1C0E686F83
:10059000000E0001D56F000ED86F010ED96F7F0ECF
:1005A000DA6F7F0EDB6F010EDC6F040EDD6F000E65
:1005B000DE6F000EDF6F820ED76F8C0ED66F010ECE
:1005C000D56F020ED86F030ED96F060EDA6F070EC5
:1005D000DB6F020EDC6F040EDD6F100EDE6F400E5F
:1005E000DF6F000ED76F820ED66F020ED56F020E30
:1005F000D86F030ED96F040EDA6F7F0EDB6F010E1A
:10060000DC6F040EDD6F100EDE6F400EDF6F000E2C
:10061000D76F820ED66F010E0201056F000E00012A
:10062000D56F550E0401596FAA0E596F5991080ED6
:100630005D6F000E5E6F000E5F6F550E596FAA0E54
:10064000596F5981AE9A9E8AD68E000E0501B56FFC
:100650000F0EC4EC84F0000EB56F0A0EC4EC84F0EB
:10066000070EB56F0B0EC4EC84F0010EB56F0C0EC7
:10067000C4EC84F0000EB56F090EC4EC84F0DDEC20
:1006800085F0C282FFD7050183AF869383BF05D073
:10069000835108E18205D8B005D0000E326E010EFC
:1006A000316E04D082C531F583C532F580C533F58E
:1006B00081C534F51FC535F520C536F521C537F59B
:1006C00022C538F523C539F524C53AF525C53BF5CE
:1006D00026C53CF5000E3E6E1F0E3D6E000EA86F47
:1006E0004ED03D06D8A03E0635500F0B3F6E090E8A
:1006F0003F6402D0370E01D0300E3F242F6E306A97
:10070000000E30222FC53FF5890E3D24D96E050E0F
:100710003E20DA6E3FC5DFF43106D8A0320633063C
:10072000D8A0340635C527F536C528F537C529F5CF
:1007300038C52AF539C52BF53AC52CF53BC52DF53D
:100740003CC52EF5050E09D0D8902E322D322C3214
:100750002B322A32293228322732E82EF5D727C504
:1007600035F528C536F529C537F52AC538F52BC521
:1007700039F52CC53AF52DC53BF52EC53CF53EBEE9
:1007800021D03E5004E1020E3D5CD8A01BD0355074
:1007900036103710381039103A103B103C10D8A4DE
:1007A000A0D732BE05D032509CE13104D8B099D7E1
:1007B00034BE08D0345003E13304D8A003D005017F
:1007C00086B38FD71DC512F51EC513F5890E3D24BE
:1007D000146E050E3E20156E33C516F534C517F59B
:1007E00083EC84F01200000E0F6E000E0E6E000EF1
:1007F0000D6E000E0C6E02D0074A082A07C5F6F4EB
:1008000008C5F7F4000EF86E0800F550200AD8B4B9
:10081000F3D707C5F6F408C5F7F4000EF86E080024
:10082000F5C409F5F70E09240A6E0B6AFF0E0B22B8
:100830000B500CE1050E0A5CD8B008D0DDD7000ED5
:100840000D6E010E0C6E074A082A32D007C5F6F469
:1008500008C5F7F4000EF86E0800F550096E0A6A34
:100860000A50000AD8A424D009502B0AD8B4EBD7D8
:10087000060AD8B4E4D71CD00EC501F50FC502F5A1
:10088000000E046E0A0E036EF2EC86F007C5F6F455
:1008900008C5F7F4000EF86E0800F550015E000E72
:1008A000025A300E01240E6E000E02200F6ECBD7BE
:1008B00007C5F6F408C5F7F4000EF86E0800F5C495
:1008C00009F5D00E09240A6E0B6AFF0E0B220B509D
:1008D00004E10A0E0A5CD8A0CFD70C500D10D8A4A2
:1008E0000DD00EC509F50FC50AF5091E0A1E094AE5
:1008F0000A2A09C507F50AC508F512000EC507F54D
:100900000FC508F51200050186A10AD014C50BF524
:1009100015C50CF512C50DF513C50EF57BEC86F06B
:1009200017BE05D016C51BF517C51CF504D0000E63
:100930001C6E000E1B6E000E1A6E000E196E0CD08F
:10094000000E036E200E026E12C504F513C505F5E8
:1009500079EC85F0194A1A2A1B50195C1A50800A42
:10096000186E1C50800A1858D8A0EAD7050186B125
:10097000120014C50BF515C50CF512C50DF513C500
:100980000EF57BEC86F01200B66FC8C4B9F5C290C4
:10099000C850FC0BC86EC090C294000E0501B86F21
:1009A000000EB76FC092B6AF02D0C08001D0C09029
:1009B000C082B651B625B66FB74BB82BB8BFF2D7C9
:1009C000B85104E1080EB75DD8A0ECD7000EB86F9F
:1009D000000EB76FC092B5AF02D0C08001D0C090FA
:1009E000C082B551B525B56FB74BB82BB8BFF2D79C
:1009F000B85104E1080EB75DD8A0ECD7C284C2801C
:100A0000B9C5C8F41200026EC8C4B9F5C290C85086
:100A1000FC0BC86EC090C294000E046E000E036EF4
:100A2000C09202AE02D0C08001D0C090C0820250FD
:100A30000224026E034A042A04BEF2D7045004E1E1
:100A4000080E035CD8A0ECD7000E046E000E036EF7
:100A5000C09201AE02D0C08001D0C090C0820150CF
:100A60000124016E034A042A04BEF2D7045004E1B3
:100A7000080E035CD8A0ECD7C284C280B9C5C8F404
:100A8000120008C588F588C505F5000EAFEC85F0A5
:100A900007C588F588C505F5010EAFEC85F00A504D
:100AA0000B10D8B40BD0800E016E040E03EC85F051
:100AB000800E016E030E03EC85F00AD0000E016E6D
:100AC000040E03EC85F0000E016E030E03EC85F0BE
:100AD00009C505F5030EAFEC85F00D0E0D6E2D0E5C
:100AE0000C6ED80EE82EFED70C2EFCD70D2EFAD7A2
:100AF000120004500510D8B404D004500510D8A436
:100B000004D0025017EC87F0120020EE09F00450D8
:100B1000D9260550DA22DE50DE10D8B416D020EEE9
:100B200009F00450D9260550DA2210EE03F00450E3
:100B3000E1260550E222DE50E65CE650800A0A6EAD
:100B4000DE50800A0A58D8B0120020EE03F004509C
:100B5000D9260550DA22DE2A000EDD221200066EAA
:100B600005500F0B0501876FBD0E8725F66EF76ADE
:100B7000FF0EF722F86A000EF8220800F5C401F50E
:100B80000650FE0DF350070F03EC85F005380F0BF0
:100B90000501876FBD0E8725F66EF76AFF0EF722F7
:100BA000F86A000EF8220800F5C401F50650FE0DA3
:100BB000F350080F03EC85F01200000EB56F010E24
:100BC000C4EC84F0000EB56F020EC4EC84F0000E8D
:100BD000B56F030EC4EC84F0000EB56F040EC4ECC8
:100BE00084F0000EB56F050EC4EC84F0000EB56FF6
:100BF000060EC4EC84F0000EB56F070EC4EC84F052
:100C0000000EB56F080EC4EC84F01200000E016EE9
:100C1000010E03EC85F0000E016E020E03EC85F070
:100C2000000E016E030E03EC85F0000E016E040E43
:100C300003EC85F0000E016E050E03EC85F0000E4E
:100C4000016E060E03EC85F0000E016E070E03EC3C
:100C500085F0000E016E080E03EC85F01200FF0E09
:100C6000016E010E03EC85F0FF0E016E020E03EC27
:100C700085F0FF0E016E030E03EC85F0FF0E016E92
:100C8000040E03EC85F0FF0E016E050E03EC85F0FB
:100C9000FF0E016E060E03EC85F0FF0E016E070ECF
:100CA00003EC85F0FF0E016E080E03EC85F01200D8
:100CB00058C55CF559C55DF50ED056C540F557C50C
:100CC00041F55C0E426E050E436E5AC544F55BC598
:100CD00045F537EC81F05CC5F6F45DC5F7F4000E20
:100CE000F86E0800F5500009D8A4E7D7000E576E3B
:100CF000000E566E1200000E116E000E106E0BD01C
:100D00000FC502F5036A0DC504F50EC505F579ECAE
:100D100085F0104A112A10500B24D96E11500C2066
:100D2000DA6EDF500F6E0F50D8B41200E9D705EE1F
:100D300000F114EE00F0EE6AE550E150FCE1E25003
:100D4000FAE101EE60F1490EEE6AE806FDE1040108
:100D5000080E5D6F000E5E6F000E5F6F00016CEF9E
:100D600082F0010E056E200E01180210D8B40ED0CC
:100D7000F70E0124036EFF0E0220046E045004E1FE
:100D8000050E035CD8A002D0000E056E05C501F566
:100D9000026A120060C505F5000EAFEC85F061C572
:100DA00005F5010EAFEC85F062C505F5020EAFEC5E
:100DB00085F063C505F5030EAFEC85F01200AB0EB0
:100DC0005E6E050E5F6E000E566E000E576EA9C564
:100DD00058F5AAC559F55E0E5A6E050E5B6E58ECB5
:100DE00086F0120001500302F3C405F5F4C406F5C1
:100DF00001500402F350062602500302F350062667
:100E000005C501F506C502F51200D00E0124036EDA
:100E1000FF0E0220046E045006E10A0E035CD8B0F7
:100E200002D0010E01D0000E016E026A1200016EA6
:0A0E3000B7A2FED701C5C9F21200F7
:020E3C001100A3
:020000040020DA
:10000000FF0FFF0FFF0FFF0FFF0FFF0FFF0FFF0F80
:10001000FF0FFF0FFF0FFF0FFF0FFF0FFF0FFF0F70
:10002000FF0FFF0FFF0FFF0FFF0FFF0FFF0FFF0F60
:10003000FF0FFF0FFF0FFF0FFF0FFF0FFF0FFF0F50
:020000040030CA
:0A0000008CFFFFF79FFFFFFFFFFFDB
:00000001FF
