:0400000081EF00F09C
:100008009143914391439143400000404000914304
:100018009143914391439143914391439143914338
:1000280091434000400040009143914391439143E4
:100038009143914391439143914391439143914318
:100048009143914391439143400040009143914330
:10005800914391439143400091439143914391438C
:1000680091439143914391439143914391439143E8
:10007800914391439143914340009143914391436C
:1000880091439143914391439143914391439143C8
:100098009143914391439143400091434000400074
:1000A80091439143914391439143914391439143A8
:1000B8009143914391439143914391439143914398
:1000C8009143914391439143914391439143914388
:1000D8009143914391439143914391439143914378
:1000E800400091439143914340004000400040004C
:0E00F8009143914391439143FF009BEF86F0AB
:10BFBC0000F331ED80C34100FFC33400FFFFFFFFEE
:10BFCC00FFC31B00FFFFFFFFFFC32E003A01E0CBB6
:10BFDC004728F93A00E0FE61D8FE7BD0E6DFC93A8B
:10BFEC0001E0CB47C9F53A01E0CB4F28F9F132001B
:10BFFC00E0C9C34400C34A00C3BF00C351000209D7
:10C00C007810214580F9C3931C112903066321453F
:10C01C00801A77231305C26000F9CD2A05CDF80AE2
:10C02C0032EF80323E8121A281237CB5CA87007E0B
:10C03C00472F77BE70CA78002B11A181CDC006DACC
:10C04C00C80011CEFF22F48019229F80CD05052A4D
:10C05C009F8011EFFF19113E817D936F7C9A67E5EC
:10C06C0021E000CD9611E1CD391821D100CD9611EA
:10C07C0031AB80CD2A05C34304211701CD9611C3E2
:10C08C00CE0020427974657320667265650D0A00D6
:10C09C00005A3830204241534943205665722034AF
:10C0AC002E37620D0A436F707972696768742028A5
:10C0BC0043292031393738206279204D6963726FFA
:10C0CC00736F66740D0A00004D656D6F7279207385
:10C0DC00697A65206E6F7420656E6F7567680D0ADE
:10C0EC005468652073797374656D2069732073745B
:10C0FC006F707065642E0D0A0000AE167217C416B0
:10C10C0048805610DB1384103819171A53158619EA
:10C11C008C1A921AF31A081B2F14731B968008138F
:10C12C002011A21317132813951B281C38136813FE
:10C13C007213C54E44C64F52CE455854C441544157
:10C14C00C94E505554C4494DD2454144CC4554C7B1
:10C15C004F544FD2554EC946D24553544F5245C7F2
:10C16C004F535542D2455455524ED2454DD3544F50
:10C17C0050CF5554CF4ECE554C4CD7414954C44555
:10C18C0046D04F4B45C44F4B45D3435245454ECCFF
:10C19C00494E4553C34C53D749445448CD4F4E494F
:10C1AC00544F52D34554D245534554D052494E5412
:10C1BC00C34F4E54CC495354C34C454152C34C4FBE
:10C1CC004144C353415645CE4557D4414228D44FE0
:10C1DC00C64ED3504328D448454ECE4F54D3544525
:10C1EC0050ABADAAAFDEC14E44CF52BEBDBCD3479F
:10C1FC004EC94E54C14253D55352C65245C94E50E6
:10C20C00D04F53D35152D24E44CC4F47C55850C344
:10C21C004F53D3494ED4414EC1544ED045454BC4D7
:10C22C0045454BD04F494E54CC454ED3545224D651
:10C23C00414CC15343C3485224C8455824C2494EAB
:10C24C0024CC45465424D24947485424CD4944244F
:10C25C00809A089707720CE709790BAE0EA80BFEB3
:10C26C0009A4098709760A60089309C209E90998A3
:10C27C0008E713580AD908ED138C1036147E1BE905
:10C28C0009641B571B5C1B901C99809C809A0AC6E6
:10C29C00080C074109E909E90904057920187954C2
:10C2AC00147C92157CF3157F411950070E46060E2F
:10C2BC004E46534E52474F4446434F564F4D554CA6
:10C2CC00425344442F304944544D4F534C535354D0
:10C2DC00434E55464D4F4858424EC3BF00C31709F5
:10C2EC00D300C9D6006F7CDE006778DE00473E00C5
:10C2FC00C9000000354ACA99391C76982295B39822
:10C30C000ADD479853D199990A1A9F9865BCCD9824
:10C31C00D6773E9852C74F80DB00C901FF1C000046
:10C32C001400140000000000C33D06C30000C3004D
:10C33C0000C30000A281FEFF3F81204572726F7224
:10C34C000020696E20004F6B0D0A0000427265617F
:10C35C006B00210400397E23FE81C04E234623E569
:10C36C0069607AB3EBCABB03EBCDC006010D00E1EB
:10C37C00C809C3A503CDDE03C5E3C1CDC0067E024B
:10C38C00C80B2BC3CA03E52A1F81060009093EE529
:10C39C003ED0956F3EFF9CDAED036739E1D81E0C59
:10C3AC00C30C042A0E8122A1801E02011E14011E40
:10C3BC0000011E12011E22011E0A011E18CD2A05A3
:10C3CC00328A80CDEB0A21FF02573E3FCDD10619B0
:10C3DC007ECDD106CD5008CDD106218903CD961145
:10C3EC002AA18011FEFFCDC006CA51007CA53CC419
:10C3FC0031183EC1AF328A80CDEB0A219503CD9620
:10C40C001121FFFF22A180CD3D06DA5004CD50084A
:10C41C003C3DCA5004F5CD1C09D5CD540547D1F18E
:10C42C00D23008D5C5AF321181CD5008B7F5CDE467
:10C43C0004DA8904F1F5CABD09B7C5D2A004EB2A08
:10C44C001B811A020313CDC006C291046069221B22
:10C45C0081D1F1CAC7042A1B81E3C109E5CDC4030C
:10C46C00E1221B81EB74D123237323722311A68049
:10C47C001A772313B7C2BF04CD100523EB626B7E72
:10C48C0023B6CA5004232323AFBE23C2D804EB73B4
:10C49C002372C3CC042AA380444D7E23B62BC8231D
:10C4AC00237E23666FCDC00660697E23666F3FC80E
:10C4BC003FD0C3E704C02AA380AF77237723221B86
:10C4CC00812AA3802B2213812AF480220881AFCDEC
:10C4DC0060082A1B81221D81221F81C12A9F80F99D
:10C4EC0021F88022F680AF6F6722198132108122E9
:10C4FC002381E5C52A1381C93E3FCDD1063E20CD0F
:10C50C00D106C39380AF32F3800E0511A6807EFE58
:10C51C0020CADC0547FE22CAFC05B7CA03063AF35B
:10C52C0080B77EC2DC05FE3F3E9ECADC057EFE3037
:10C53C00DA8705FE3CDADC05D5118001C501D8058A
:10C54C00C5067F7EFE61DAA005FE7BD2A005E65F04
:10C55C00774EEB23B6F2A205047EE67FC8B9C2A2E1
:10C56C0005EBE5131AB7FAD4054F78FE88C2C3055C
:10C57C00CD50082B237EFE61DACC05E65FB9CAB23A
:10C58C0005E1C3A00548F1EBC9EB79C1D123121326
:10C59C000CD63ACAEA05FE49C2ED0532F380D654F0
:10C5AC00C25D05477EB7CA0306B8CADC0523120C68
:10C5BC0013C3F30521A5801213121312C93A8980F3
:10C5CC00B73E00328980C2200605CA3D06CDD10691
:10C5DC003E052BCA34067ECDD106C34606052BCDAF
:10C5EC00D106C24606CDD106CDF80AC33D0621A61A
:10C5FC00800601AF328980CDFB064FFE7FCA0C0648
:10C60C003A8980B7CA5F063E00CDD106AF32898029
:10C61C0079FE07CAA306FE03CCF80A37C8FE0DCA7A
:10C62C00F30AFE15CA3706FE40CA3406FE5FCA2C52
:10C63C0006FE08CA2C06FE12C29E06C5D5E53600BB
:10C64C00CDA21C21A680CD9611E1D1C1C34606FE18
:10C65C0020DA460678FE493E07D2B80679713211C7
:10C66C00812304CDD106C34606CDD1063E08C3B204
:10C67C00067C92C07D93C97EE3BE23E3CA5008C3F7
:10C68C00F803F53A8A80B7C2CB11F1C5F5FE20DA72
:10C69C00F5063A8780473AF08004CAF10605B8CC13
:10C6AC00F80A3C32F080F1C1CD8D1CC9CD551BE68A
:10C6BC007FFE0FC03A8A802F328A80AFC9CD1C0909
:10C6CC00C0C1CDE404C5CD6207E14E23462378B149
:10C6DC00CA4304CD6B07CD7B08C5CDF80A5E235643
:10C6EC0023E5EBCD39183E20E1CDD1067EB723CA28
:10C6FC001807F23807D67F4F1181011A13B7F24A87
:10C70C00070DC24A07E67FCDD1061A13B7F25407BC
:10C71C00C33B07E52A8D80228B80E1C9E5D52A8BA6
:10C72C008011FFFFED5A228B80D1E1F0E52A8D803C
:10C73C00228B80CD551BFE03CA8E07E1C36B072AE3
:10C74C008D80228B80C3C2003E64321081CDFE09E5
:10C75C00C1E5CDE709220C8121020039CDA503D119
:10C76C00C2C70709D52B562B5E2323E52A0C81CD96
:10C77C00C006E1C2AB07D1F9EB0E08CDD503E52A13
:10C78C000C81E3E52AA180E3CDC00CCDC606A6CD75
:10C79C00BD0CE5CDEB16E1C5D5010081515A7EFEED
:10C7AC00AB3E01C20308CD5008CDBD0CE5CDEB1658
:10C7BC00CD9F16E1C5D5F533E52A1381E30681C576
:10C7CC0033CD7B082213817EFE3ACA3008B7C2F8FB
:10C7DC0003237E23B6CAA208235E2356EB22A18034
:10C7EC00EBCD5008111008D5C8D680DAFE09FE250D
:10C7FC00D2F803074F0600EB21A002094E2346C5D1
:10C80C00EB237EFE3AD0FE20CA5008FE303F3C3D62
:10C81C00C9EB2AA380CA7508EBCD1C09E5CDE4044D
:10C82C006069D1D2BD092B222181EBC9DFC8D7FEAB
:10C83C001B2811FE03280DFE13C0D7FE11C8FE03E2
:10C84C00280718F63EFF329280C0F6C022138121D1
:10C85C00F6FFC12AA180F57DA43CCAB50822178138
:10C86C002A1381221981AF328A80CDEB0AF1219BE8
:10C87C0003C22C04C343042A19817CB51E20CA0CA4
:10C88C0004EB2A178122A180EBC9CD1E14C032867D
:10C89C0080C9E52A8F8006004F09228F80E1C97E6E
:10C8AC00FE41D8FE5B3FC9CD5008CDBD0CCD9F16C7
:10C8BC00FA17093A2C81FE90DA4717018090110083
:10C8CC0000E5CD1A17E151C81E08C30C042B11004A
:10C8DC0000CD5008D0E5F5219819CDC006DAF80343
:10C8EC00626B19291929F1D6305F160019EBE1C3D7
:10C8FC002009CA1405CDF9082BCD5008E52AF4807F
:10C90C00CA6409E1CDC6062CD5CDF9082BCD50084B
:10C91C00C2F803E3EB7D935F7C9A57DAED03E52ACB
:10C92C001B8101280009CDC006D2ED03EB229F80AC
:10C93C00E122F480E1C31405CA1005CD14050110E1
:10C94C0008C3A3090E03CDD503C1E5E52AA180E3F5
:10C95C003E8CF533C5CD1C09CDE909E52AA180CD66
:10C96C00C006E123DCE704D4E40460692BD81E0E76
:10C97C00C30C04C016FFCDA103F9FE8C1E04C20C1F
:10C98C0004E122A180237CB5C2E1093A1181B7C22E
:10C99C004204211008E33EE1013A0E0006007948FA
:10C9AC00477EB7C8B8C823FE22CAED09C3F009CD2B
:10C9BC00B30ECDC606B4D53AF280F5CDCF0CF1E36B
:10C9CC002213811FCDC20CCA510AE52A2981E52305
:10C9DC00235E23562AA380CDC006D2400A2A9F800C
:10C9EC00CDC006D1D2480A210481CDC006D2480A56
:10C9FC003ED1CDF712EBCD3011CDF712E1CDFA16B9
:10CA0C00E1C9E5CDF716D1E1C9CD1E147E47FE8CE8
:10CA1C00CA670ACDC606882B4B0D78CA3808CD1DBF
:10CA2C0009FE2CC0C3680ACDCF0C7EFE88CA840ACE
:10CA3C00CDC606A92BCDC00CCD9F16CAE909CD5089
:10CA4C0008DAA409C337082BCD5008CAF80AC8FE67
:10CA5C00A5CA2B0BFEA8CA2B0BE5FE2CCA140BFE89
:10CA6C003BCA4E0BC1CDCF0CE53AF280B7C2E40AFB
:10CA7C00CD4418CD541136202A2981342A29813AE3
:10CA8C0087804704CAE00A043AF080863DB8D4F89F
:10CA9C000ACD9911AFC49911E1C3960A3AF080B747
:10CAAC00C8C3F80A360021A5803E0DCDD1063E0A3A
:10CABC00CDD106AF32F0803A86803DC8F5AFCDD1EE
:10CACC0006F1C3090B3A8880473AF080B8D4F80ACB
:10CADC00D24E0BD60ED2220B2FC3430BF5CD1B140B
:10CAEC00CDC606292BF1D6A8E5CA3E0B3AF0802F0D
:10CAFC0083D24E0B3C473E20CDD10605C2470BE1FD
:10CB0C00CD5008C39D0A3F5265646F2066726F6DED
:10CB1C002073746172740D0A003A1281B7C2F20369
:10CB2C00C121550BCD9611C34305CD01117EFE22BB
:10CB3C003E00328A80C2930BCD5511CDC6063BE523
:10CB4C00CD99113EE5CD4705C1DA9F08237EB72B61
:10CB5C00C5CAE609362CC3AD0BE52A2181F6AF32E6
:10CB6C001281E3C3B90BCDC6062CCDB30EE3D57E33
:10CB7C00FE2CCAE10B3A1281B7C24E0C3E3FCDD10E
:10CB8C0006CD4705D1C1DA9F08237EB72BC5CAE66F
:10CB9C0009D53AF280B7CA0B0CCD50085747FE2284
:10CBAC00CAFF0B3A1281B757CAFC0B163A062C2B4C
:10CBBC00CD5811EB21160CE3D5C3190ACD5008CD75
:10CBCC00A617E3CDF716E12BCD5008CA220CFE2C8C
:10CBDC00C2680BE32BCD5008C2B50BD13A1281B70A
:10CBEC00EBC27608D5B6213D0CC49611E1C93F4580
:10CBFC00787472612069676E6F7265640D0A00CD7E
:10CC0C00E709B7C2670C237E23B61E06CA0C0423A1
:10CC1C005E2356EB220E81EBCD5008FE83C24E0CE8
:10CC2C00C3E10B110000C4B30E221381CDA103C2CA
:10CC3C00FE03F9D57E23F5D5CDDD16E3E5CD4A14FB
:10CC4C00E1CDF716E1CDEE16E5CD1A17E1C190CD89
:10CC5C00EE16CAAD0CEB22A1806960C30C08F92A50
:10CC6C0013817EFE2CC21008CD5008CD750CCDCF93
:10CC7C000CF6373AF2808FB7E8C30A04CDC6062803
:10CC8C002B1600D50E01CDD503CD460D2215812ACC
:10CC9C001581C178FE78D4C00C7E1600D6B3DA07A5
:10CCAC000DFE03D2070DFE0117AABA57DAF80322BC
:10CCBC000A81CD5008C3EB0C7AB7C22E0E7E220A25
:10CCCC0081D6ACD8FE07D05F3AF2803DB37BCA8CDC
:10CCDC001207835F21EA02197856BAD023CDC00C13
:10CCEC00C501DE0CC5434ACDD01658514E23462300
:10CCFC00C52A0A81C3D20CAF32F280CD50081E2453
:10CD0C00CA0C04DAA617CDEE08D2AD0DFE26201201
:10CD1C00CD5008FE48CAEA1BFE42CA5A1C1E02CA63
:10CD2C000C04FEACCA460DFE2ECAA617FEADCA9C5C
:10CD3C000DFE22CA5511FEAACA8E0EFEA7CAB91044
:10CD4C00D6B6D2BE0DCDCB0CCDC60629C9167DCD1F
:10CD5C00D20C2A1581E5CDC816CDC00CE1C9CDB3D6
:10CD6C000EE5EB2229813AF280B7CCDD16E1C9063B
:10CD7C0000074FC5CD500879FE31DAE50DCDCB0C4F
:10CD8C00CDC6062CCDC10CEB2A2981E3E5EBCD1EDB
:10CD9C0014EBE3C3ED0DCD940DE311A80DD50149B2
:10CDAC0001094E236669E915FEADC8FE2DC814FEB7
:10CDBC002BC8FEACC82BC9F6AFF5CDC00CCD020903
:10CDCC00F1EBC1E3EBCDE016F5CD0209F1C1792110
:10CDDC007710C2290EA34F78A2E9B34F78B2E9219C
:10CDEC00400E3AF2801F7A175F166478BAD0C32FC0
:10CDFC000D420E79B71FC1D1F5CDC20C21840EE5C1
:10CE0C00CA1A17AF32F280D5CDD9127E23234E2306
:10CE1C0046D1C5F5CDDD12CDEE16F157E17BB2C88A
:10CE2C007AD601D8AFBB3CD0151D0ABE2303CA6C01
:10CE3C000E3FC3AA163C8FC1A0C6FF9FC3B11616E6
:10CE4C005ACDD20CCDC00CCD02097B2F4F7A2FCDF1
:10CE5C007710C1C3DE0C2BCD5008C8CDC6062C01F3
:10CE6C00A50EC5F6AF32F18046CDEE08DAF803AF69
:10CE7C004F32F280CD5008DACF0ECDEE08DADC0E50
:10CE8C004FCD5008DAD00ECDEE08D2D00ED624C23B
:10CE9C00EB0E3C32F2800F814FCD50083A10813DA1
:10CEAC00CA980FF2FB0E7ED628CA700FAF321081D3
:10CEBC00E550592A2381CDC006112581CAE0152AD7
:10CECC001D81EB2A1B81CDC006CA2E0F799623C279
:10CEDC00230F789623CA620F23232323C3150FE154
:10CEEC00E3D511B00DCDC006D1CA650FE3E5C50180
:10CEFC0006002A1F81E509C1E5CDC403E1221F818B
:10CF0C006069221D812B3600CDC006C2540FD1732F
:10CF1C00237223EBE1C9322C81219403222981E174
:10CF2C00C9E52AF180E357D5C5CDF608C1F1EBE38D
:10CF3C00E5EB3C577EFE2CCA760FCDC60629221592
:10CF4C0081E122F1801E00D511E5F52A1D813E19E3
:10CF5C00EB2A1F81EBCDC006CAD00F7EB923C2B21B
:10CF6C000F7EB8235E235623C29E0F3AF180B7C2C0
:10CF7C000104F1444DCAE01596CA2E101E10C30CC4
:10CF8C0004110400F1CA1709712370234FCDD50386
:10CF9C002323220A8171233AF1801779010B00D2E5
:10CFAC00F30FC10371237023F5E5CD8B17EBE1F182
:10CFBC003DC2EB0FF5424BEB19DAED03CDDE03224C
:10CFCC001F812B3600CDC006C2111003572A0A81CF
:10CFDC005EEB2909EB2B2B73237223F1DA521047EA
:10CFEC004F7E2316E15E235623E3F5CDC006D2CB4C
:10CFFC000FE5CD8B17D119F13D444DC233102929C2
:10D00C00C109EB2A1581C92A1F81EB210000393A8D
:10D01C00F280B7CA7210CDD912CDD9112A9F80EBEC
:10D02C002A08817D934F7C9A41501E0021F2807317
:10D03C000690C3B6163AF08047AFC37810CD0F11E7
:10D04C00CD011101E709C5D5CDC60628CDB30EE536
:10D05C00EB2B562B5EE1CDC00CCDC60629CDC606FA
:10D06C00B4444DE3712370C34E11CD0F11D5CD9443
:10D07C000DCDC00CE35E2356237AB3CA04047E2381
:10D08C00666FE52A2381E32223812A2781E52A255D
:10D09C0081E5212581D5CDF716E1CDBD0C2BCD50E9
:10D0AC0008C2F803E1222581E1222781E1222381B4
:10D0BC00E1C9E52AA180237CB5E1C01E16C30C048E
:10D0CC00CDC606A73E80321081B647CDB80EC3C080
:10D0DC000CCDC00CCD4418CD5411CDD91201341344
:10D0EC00C57E2323E5CDAF11E14E2346CD4811E596
:10D0FC006FCDCC12D1C9CDAF11210481E57723239B
:10D10C00732372E1C92B062250E50EFF237E0CB768
:10D11C00CA6A11BACA6A11B8C25B11FE22CC500895
:10D12C00E323EB79CD48111104812AF68022298161
:10D13C003E0132F280CDFA16CDC00622F680E17E99
:10D14C00C01E1EC30C0423CD5411CDD912CDEE1626
:10D15C001C1DC80ACDD106FE0DCC020B03C3A011B9
:10D16C00B70EF1F52A9F80EB2A08812F4F06FF0995
:10D17C0023CDC006DACD1122088123EBF1C9F11EB3
:10D18C001ACA0C04BFF501B111C52AF4802208811A
:10D19C00210000E52A9F80E521F880EB2AF680EB40
:10D1AC00CDC00601EA11C23E122A1B81EB2A1D8159
:10D1BC00EBCDC006CA11127E2323B7CD4112C3FB9F
:10D1CC0011C1EB2A1F81EBCDC006CA6712CDEE163A
:10D1DC007BE509B7F21012220A81E14E060009091B
:10D1EC0023EB2A0A81EBCDC006CA1112013012C5FD
:10D1FC00F6807E23235E235623F0B7C8444D2A08BD
:10D20C0081CDC0066069D8E1E3CDC006E3E5606975
:10D21C00D0C1F1F1E5D5C5C9D1E17DB4C82B462B00
:10D22C004EE52B2B6E26000950592B444D2A0881B4
:10D23C00CDC703E171237069602BC3DC11C5E52AEE
:10D24C002981E3CD460DE3CDC10C7EE52A2981E58C
:10D25C00861E1CDA0C04CD4511D1CDDD12E3CDDCDC
:10D26C0012E52A0681EBCDC312CDC31221DB0CE3F0
:10D27C00E5C37611E1E37E23234E23466F2C2DC8A4
:10D28C000A120313C3CD12CDC10C2A2981EBCDF7A1
:10D29C0012EBC0D550591B4E2A0881CDC006C2F5E1
:10D2AC00124709220881E1C92AF6802B462B4E2B06
:10D2BC002BCDC006C022F680C9018710C5CDD61271
:10D2CC00AF5732F2807EB7C9018710C5CD0C13CA97
:10D2DC00170923235E23561AC93E01CD4511CD21D2
:10D2EC00142A068173C1C37611CDD113AFE34FE578
:10D2FC007EB8DA461378110E00C5CDAF11C1E1E549
:10D30C00232346236668060009444DCD48116FCD92
:10D31C00CC12D1CDDD12C37611CDD113D1D51A904B
:10D32C00C33C13EB7ECDD6130405CA1709C51EFFEB
:10D33C00FE29CA8B13CDC6062CCD1E14CDC60629CC
:10D34C00F1E3013E13C53DBE0600D04F7E91BB47B5
:10D35C00D843C9CD0C13CABF145F23237E23666F39
:10D36C00E5194672E3C57EFE24C2C013CDEA1B1834
:10D37C000DFE25C2CA13CD5A1C1803CDA617C1E148
:10D38C0070C9EBCDC60629C1D1C543C9CD21143214
:10D39C008480CD8380C38710CD0B14C34B80CD0B01
:10D3AC0014F51E002BCD5008CA0114CDC6062CCD89
:10D3BC001E14C1CD8380ABA0CA0214C9CD1E143279
:10D3CC008480324C80CDC6062CC31E14CD5008CDA3
:10D3DC00BD0CCDFC087AB7C217092BCD50087BC900
:10D3EC00CD02091AC38710CDBD0CCD0209D5CDC60F
:10D3FC00062CCD1E14D112C9211D19CDEE16C35900
:10D40C0014CDEE1621C1D1CDC81678B7C83A2C81EF
:10D41C00B7CAE01690D273142F3CEBCDD016EBCDDF
:10D42C00E016C1D1FE19D0F5CD051767F1CD1E154B
:10D43C00B4212981F29914CDFE14D2DF142334CAFD
:10D44C0007042E01CD3415C3DF14AF90477E9B5FCC
:10D45C00237E9A57237E994FDC0A156863AF477970
:10D46C00B7C2CC144A54656F78D608FEE0C2AD142E
:10D47C00AF322C81C905297A1757798F4FF2C41412
:10D48C00785C45B7CADF14212C818677D2BF14C8CB
:10D49C0078212C81B7FCF11446237EE680A94FC37A
:10D4AC00E0161CC014C00CC00E8034C0C307047E30
:10D4BC00835F237E8A57237E894FC9212D817E2F3E
:10D4CC0077AF6F90477D9B5F7D9A577D994FC906CB
:10D4DC0000D608DA2D15435A510E00C32015C60983
:10D4EC006FAF2DC8791F4F7A1F577B1F5F781F476F
:10D4FC00C330150000008103AA561980F1227680F2
:10D50C0045AA3882CD9F16B7EA1709212C817E01D6
:10D51C00358011F30490F570D5C5CD5914C1D104E3
:10D52C00CDF515214215CD5014214615CDE7190125
:10D53C008080110000CD5914F1CD1A1801318011E1
:10D54C00187221C1D1CD9F16C82E00CD5D1679322F
:10D55C003B81EB223C81010000505821AA14E521AB
:10D56C00B615E5E52129817E23B7CAE215E52E081B
:10D57C001F6779D2D015E52A3C8119EBE13A3B8142
:10D58C00891F4F7A1F577B1F5F781F472D7CC2BFA7
:10D59C0015E1C9435A514FC9CDD016012084110051
:10D5AC0000CDE016C1D1CD9F16CAFB032EFFCD5D79
:10D5BC001634342B7E3257802B7E3253802B7E32A6
:10D5CC004F8041EBAF4F575F325A80E5C57DCD4E52
:10D5DC0080DE003FD22D16325A80F1F137D2C1E1F4
:10D5EC00793C3D1FFAE014177B175F7A17577917B0
:10D5FC004F297817473A5A8017325A8079B2B3C2FA
:10D60C001A16E5212C8135E1C21A16C3070478B726
:10D61C00CA81167D212C81AE80471FA878F2801616
:10D62C00C68077CAE015CD0517772BC9CD9F162F6D
:10D63C00E1B7E1F2BF14C30704CDEB1678B7C8C647
:10D64C0002DA070447CD5914212C8134C0C30704D6
:10D65C003A2C81B7C83A2B81FE2F179FC03CC9CDFD
:10D66C009F160688110000212C814F70060023366E
:10D67C008017C3A714CD9F16F0212B817EEE8077E7
:10D68C00C9EB2A2981E3E52A2B81E3E5EBC9CDEE31
:10D69C0016EB2229816069222B81EBC92129815E3D
:10D6AC002356234E234623C911298106041A7713C6
:10D6BC002305C2FC16C9212B817E07371F773F1F1C
:10D6CC002323777907371F4F1FAEC978B7CA9F1628
:10D6DC0021A816E5CD9F1679C8212B81AE79F8CDFE
:10D6EC0034171FA9C92378BEC02B79BEC02B7ABEB4
:10D6FC00C02B7B96C0E1E1C9474F575FB7C8E5CD5A
:10D70C00EB16CD0517AE67FC6B173E9890CD1E152A
:10D71C007C17DCF1140600DC0A15E1C91B7AA33C6A
:10D72C00C00BC9212C817EFE983A2981D07ECD4731
:10D73C001736987BF57917CDA714F1C9210000781D
:10D74C00B1C83E1029DACB0FEB29EBD2A11709DABD
:10D75C00CB0F3DC29317C9FE2DF5CAB217FE2BCACB
:10D76C00B2172BCDBF1447575F2F4FCD5008DA039C
:10D77C0018FE2ECADE17FE45C2E217CD5008CDF6B4
:10D78C000DCD5008DA251814C2E217AF935F0C0CBC
:10D79C00CABA17E57B90F4FB17F2F117F5CDE71534
:10D7AC00F13CC2E517D1F1CCC816EBC9C8F5CD8850
:10D7BC0016F13DC9D557788947C5E5D5CD8816F101
:10D7CC00D630CD1A18E1C1D1C3BA17CDD016CDB110
:10D7DC0016C1D1C359147B0707830786D6305FC3A4
:10D7EC00D017E5219003CD9611E1EBAF0698CDB69D
:10D7FC0016219511E5212E81E5CD9F163620F2528A
:10D80C0018362D233630CA0819E5FCC816AFF5CDED
:10D81C000E1901439111F84FCD1A17B7E27F18F189
:10D82C00CDFC17F5C36118CDE715F13CF5CD0E19FC
:10D83C00CD47143CCD4717CDE016010603F1813CD2
:10D84C00FA9B18FE08D29B183C473E023D3DE1F581
:10D85C0011211905C2AC18362E2336302305362E6D
:10D86C00CCF516C5E5D5CDEB16E1062F047B965FFE
:10D87C00237A9E5723799E4F2B2BD2BB18CDFE14A7
:10D88C0023CDE016EBE17023C10DC2AC1805CAEC38
:10D89C00182B7EFE30CAE018FE2EC4F516F1CA0B0A
:10D8AC0019364523362BF2FC18362D2F3C062F0447
:10D8BC00D60AD2FE18C63A237023772371E1C90128
:10D8CC00749411F723CD1A17B7E1E27618E900002A
:10D8DC000080A08601102700E803006400000A0005
:10D8EC000001000021C816E3E9CDD016211D19CD89
:10D8FC00DD16C1D1CD9F1678CA8619F25119B7CA57
:10D90C00FB03B7CAC014D5C579F67FCDEB16F26E02
:10D91C0019D5C5CD7217C1D1F5CD1A17E17C1FE110
:10D92C00222B81E1222981DC3319CCC816D5C5CD37
:10D93C005315C1D1CD9415CDD016013881113BAA08
:10D94C00CD94153A2C81FE88D27B16CD7217C680E9
:10D95C00C602DA7B16F5214215CD4A14CD8B15F192
:10D96C00C1D1F5CD5614CDC81621C619CDF6191155
:10D97C000000C14AC3941508402E9474704F2E7742
:10D98C006E02887AE6A02A7C50AAAA7EFFFF7F7FCF
:10D99C000000808100000081CDD016119215D5E5D4
:10D9AC00CDEB16CD9415E1CDD0167E23CDDD16062C
:10D9BC00F1C1D13DC8D5C5F5E5CD9415E1CDEE1637
:10D9CC00E5CD5914E1C3FF19CD9F16215E80FA787D
:10D9DC001A217F80CDDD16215E80C886E607060001
:10D9EC00772387874F09CDEE16CD94153A5D803C91
:10D9FC00E6030600FE0188325D80217C1A87874F82
:10DA0C0009CD4A14CDEB167B59EE4F4F36802B4681
:10DA1C003680215C80347ED6ABC26F1A770C151C15
:10DA2C00CDAA14217F80C3F716772B772B77C3539E
:10DA3C001A68B1466899E9926910D1756821D61AAD
:10DA4C00CD4A14CDD01601498311DB0FCDE016C1A0
:10DA5C00D1CDF515CDD016CD7217C1D1CD5614211F
:10DA6C00DA1ACD5014CD9F1637F2C21ACD4714CD09
:10DA7C009F16B7F5F4C81621DA1ACD4A14F1D4C89A
:10DA8C001621DE1AC3E719DB0F49810000007F0560
:10DA9C00BAD71E866426998758342387E05DA586FD
:10DAAC00DA0F4983CDD016CD921AC1E1CDD016EB49
:10DABC00CDE016CD8C1AC3F315CD9F16FC3319FC93
:10DACC00C8163A2C81FE81DA251B0100815159CDF3
:10DADC00F515215014E5212F1BCDE71921D61AC9B4
:10DAEC00094AD73B78026E847BFEC12F7C74319A35
:10DAFC007D843D5A7DC87F917EE4BB4C7E6CAAAA86
:10DB0C007F00000081C9D7C93E0CC38D1CCD1E14EB
:10DB1C007B328780C9CDBD0CCD0209ED538B80EDD6
:10DB2C00538D80C9CD0209D5E146237EC37810CD33
:10DB3C00BD0CCD0209D5CDC6062CCDBD0CCD020930
:10DB4C00E3732372E1C9CDC00CCD0209C5212E812E
:10DB5C007AFE00280CCDCD1B78FE30280270237184
:10DB6C00237BCDCD1B7AFE00200578FE3028027079
:10DB7C00237123AF772377C1212E81C3261147E66A
:10DB8C000FFE0A3802C607C6304F780F0F0F0FE68C
:10DB9C000FFE0A3802C607C63047C9EB210000CD7C
:10DBAC00031CDA231C1805CD031C381F292929292D
:10DBBC00B56F18F3131AFE20CA031CD630D8FE0A10
:10DBCC003805D607FE0AD8FE103FC9EB7A4BE5CDD7
:10DBDC007710E1C91E26C30C04CDC00CCD0209C5BB
:10DBEC00212E8106110578FE012808CB13CB1230AB
:10DBFC00F41804CB13CB123E30CE0077230520F360
:10DC0C00AF772377C1212E81C32611EB210000CDE4
:10DC1C00771CDA851CD63029B56FCD771C30F6EB26
:10DC2C007A4BE5CD7710E1C9131AFE20CA771CFE9A
:10DC3C0030D8FE323FC91E28C30C04C35100C308A0
:10DC4C0000C300003E00329280C35800F5A0C1B85A
:10DC5C003E00C9CDD106C3F80AFFFFFFFFFFFFFF4F
:10DC6C00FFFFFFFFFFFFFFFFFFFFFFFFFFFFFFFFB8
:10DC7C00FFFFFFFFFFFFFFFFFFFFFFFFFFFFFFFFA8
:10DC8C00FFFFFFFFFFFFFFFFFFFFFFFFFFFFFFFF98
:10DC9C00FFFFFFFFFFFFFFFFFFFFFFFFFFFFFFFF88
:10DFBC00FF00000000000000000000000000000056
:10DFCC000000000000000000000000000000000045
:10DFDC000000000000000000000000000000000035
:10DFEC000000000000000000000000000000000025
:10DFFC000000000000000000000000000000000015
:10FFBC00007E306D79335B5F707F7B771F4E3D4FDA
:10FFCC0047524420414444523A253034582C444141
:10FFDC0054413A253032580D0A00575220414444BE
:10FFEC00523A253034582C444154413A2530325839
:04FFFC000D0A0000EA
:020000040001F9
:10000000F6C4AFF5F7C4B0F5F8C4B1F5F5C4B2F570
:10001000AE9AD1C485F5CFC484F5CEBA6CD0000EAB
:10002000C86E0001D4A50ED0BD0E05018425F66E64
:10003000BF0E8521F76EF86A000EF8220800F5C49D
:10004000B3F52ED0D4A306D0000E05018425D96EB9
:10005000950E20D00501840507E1E00E8519D8A48E
:1000600003D0B7C4B3F51CD0E00E85198411D8A411
:1000700003D0C7C2B3F514D0F00E855DD8A00FD061
:10008000200E845DF00E8559D8B009D0600E84250D
:10009000D96E150E8521DA6EDF50B36F01D0B369CA
:1000A000040E6419D8A41ED066A10CD084C507F52F
:1000B00085C508F5B3C509F5000E0B6E000E0A6E76
:1000C00045EC85F0050166A30DD0CD0EA96FFF0E9E
:1000D000AA6F84C5ABF585C5ACF5B3C5ADF5AE6B00
:1000E000E3EC86F0B3C5C0F40001D785D795CEA266
:1000F000FED7C868B3D00001D4A30AD0000E050112
:100100008425D96E950E8521DA6ED0C4DFF480D0B7
:10011000E00E050185198411D8A403D0D0C4C9F21A
:1001200077D0F00E855DD8A073D0200E845DF00EE0
:100130008559D8B06DD0600E8425D96E150E8521F5
:10014000DA6ED0C4DFF4F00E855DD8A00BD0040EBB
:10015000845DF00E8559D8B005D0CEEC86F0030E44
:100160000501646F040E841946E1F00E8519D8A4C8
:1001700042D06451D8A403D00AEC86F03CD0640588
:10018000D8A415D0000EB46FB4517708D96E000E04
:10019000D8A0E82A0508DA6EDF50016EB42907EC12
:1001A00085F00501B42B070EB465EED724D0020EFE
:1001B0006419D8A415D0000EB46FB4517F08D96E5D
:1001C000000ED8A0E82A0508DA6EDF50016EB429C7
:1001D00007EC85F00501B42B070EB465EED70BD004
:1001E000030E6419D8A403D0CEEC86F004D06429A1
:1001F000D8B433EC86F0050E0501841909E1F00E40
:100200008519D8A405D065C501F50A0E07EC85F05F
:10021000040E05016419D8A41ED066A10CD084C5B3
:1002200007F585C508F5D0C409F5000E0B6E010E63
:100230000A6E45EC85F0050166A30DD0E60EA96FA8
:10024000FF0EAA6F84C5ABF585C5ACF5D0C4ADF57E
:10025000AE6BE3EC86F00001D785D795B2C5F5F417
:10026000B1C5F8F4B0C5F7F4AFC5F6F4110042C556
:10027000D9F443C5DAF4DEC4F6F4DDC4F7F4000EB5
:10028000F86E0800F550250AD8A411D142C5D9F45A
:1002900043C5DAF4DE2A000EDD22000E0501816F6F
:1002A000000E806F80C586F582698369000E536EEB
:1002B000000E0DD00501868342C5D9F443C5DAF49A
:1002C000DE2A000EDD221CD0000E536E010E526E8F
:1002D00017D042C5D9F443C5DAF4DEC4F6F4DDC460
:1002E000F7F4000EF86E0800F550466E476A475066
:1002F000000AD8A4E9D74650300AD8B4DBD7E4D7EF
:1003000052505310D8B4E5D742C5D9F443C5DAF4F6
:10031000DEC4F6F4DDC4F7F4000EF86E0800F55004
:100320002A0AD8A424D042C5D9F443C5DAF4DE2A77
:10033000000EDD2244C5D9F445C5DAF4DFC446F524
:10034000020EDE26DFC447F5000EDD2246C5D9F4D5
:1003500047C5DAF4DEC480F5DDC481F5050181AF5F
:1003600035D08681806D811FD8B0812B2FD042C5BA
:10037000D9F443C5DAF4DEC407F5DDC408F5F7ECBB
:1003800083F007C580F508C581F507D042C5D9F4CB
:1003900043C5DAF4DE2A000EDD2242C5D9F443C596
:1003A000DAF4DEC4F6F4DDC4F7F4000EF86E0800EB
:1003B000F5C446F5D00E4624476E486AFF0E482223
:1003C000485004E10A0E475CD8A0E0D742C5D9F4F2
:1003D00043C5DAF4DEC454F5DDC455F554C5F6F46E
:1003E00055C5F7F4000EF86E0800F550580AD8A469
:1003F00056D044C5D9F445C5DAF4DFC446F5020E3B
:10040000DE26DFC447F5000EDD2246C5D9F447C518
:10041000DAF4DEC448F5DDC449F548C54AF549C5F6
:100420004BF54C6A4D6A4E6A4F6A506A516A010E2A
:100430005424466E000E5520476E42C5D9F443C57C
:10044000DAF446C5DEF447C5DDF417D040C51DF526
:1004500041C51EF54AC51FF54BC520F54CC521F514
:100460004DC522F54EC523F54FC524F550C525F5DC
:1004700051C526F547EC83F0120054C5F6F455C576
:10048000F7F4000EF86E0800F550466E476A4750C4
:10049000000AD8A404D04650580AD8B4D7D742C5C9
:1004A000D9F443C5DAF4DE2A000EDD22120042C57B
:1004B000D9F443C5DAF4DEC4F6F4DDC4F7F4000E73
:1004C000F86E0800F550026E036A40C504F541C598
:1004D00005F57DEC85F0E3D7080E0001B16F000E45
:1004E0000401186F1969C968000E086F0969C768A7
:1004F000000E106F1169C8682091C290CA902093B5
:10050000C292CA922095C284CA9400930183C68283
:1005100000910181C680009B018BC68A00950185F0
:10052000C6840099BE88C6983F0E0201046F04017C
:100530000097C6962F0E436F400E446F010E456F15
:10054000000E476F4691468B468F010E0201D56F14
:10055000A00ED46FD189D18B0401009FC68E070EE7
:100560000201766F0401009DBE8CC69C260E02011E
:10057000076FD28F010E616F020E626F1F0E636FE5
:100580001E0E646F050E656F1D0E676F1C0E686F83
:10059000000E0001D56F000ED86F010ED96F7F0ECF
:1005A000DA6F7F0EDB6F010EDC6F040EDD6F000E65
:1005B000DE6F000EDF6F820ED76F8C0ED66F010ECE
:1005C000D56F020ED86F030ED96F060EDA6F070EC5
:1005D000DB6F020EDC6F040EDD6F100EDE6F400E5F
:1005E000DF6F000ED76F820ED66F020ED56F020E30
:1005F000D86F030ED96F040EDA6F7F0EDB6F010E1A
:10060000DC6F040EDD6F100EDE6F400EDF6F000E2C
:10061000D76F820ED66F010E0201056F000E00012A
:10062000D56F550E0401596FAA0E596F5991080ED6
:100630005D6F000E5E6F000E5F6F550E596FAA0E54
:10064000596F5981AE9A9E8AD68E000E0501B56FFC
:100650000F0EC8EC84F0000EB56F0A0EC8EC84F0E3
:10066000070EB56F0B0EC8EC84F0010EB56F0C0EC3
:10067000C8EC84F0000EB56F090EC8EC84F0E1EC14
:1006800085F0010E666F040E646FC282FFD705010C
:1006900083AF869383BF05D0835108E18205D8B02C
:1006A00005D0000E326E010E316E04D082C531F5D8
:1006B00083C532F580C533F581C534F51FC535F5E1
:1006C00020C536F521C537F522C538F523C539F5DE
:1006D00024C53AF525C53BF526C53CF5000E3E6E12
:1006E0001F0E3D6E000EA86F4ED03D06D8A03E06F0
:1006F00035500F0B3F6E090E3F6402D0370E01D00C
:10070000300E3F242F6E306A000E30222FC53FF589
:10071000890E3D24D96E050E3E20DA6E3FC5DFF40A
:100720003106D8A032063306D8A0340635C527F5E1
:1007300036C528F537C529F538C52AF539C52BF54D
:100740003AC52CF53BC52DF53CC52EF5050E09D057
:10075000D8902E322D322C322B322A3229322832A6
:100760002732E82EF5D727C535F528C536F529C532
:1007700037F52AC538F52BC539F52CC53AF52DC501
:100780003BF52EC53CF53EBE21D03E5004E1020EA5
:100790003D5CD8A01BD035503610371038103910BA
:1007A0003A103B103C10D8A4A0D732BE05D032502E
:1007B0009CE13104D8B099D734BE08D0345003E15D
:1007C0003304D8A003D0050186B38FD71DC512F519
:1007D0001EC513F5890E3D24146E050E3E20156EC0
:1007E00033C516F534C517F587EC84F01200000EFA
:1007F0000F6E000E0E6E000E0D6E000E0C6E02D00F
:10080000074A082A07C5F6F408C5F7F4000EF86E83
:100810000800F550200AD8B4F3D707C5F6F408C588
:10082000F7F4000EF86E0800F5C409F5F70E092478
:100830000A6E0B6AFF0E0B220B500CE1050E0A5CD0
:10084000D8B008D0DDD7000E0D6E010E0C6E074A31
:10085000082A32D007C5F6F408C5F7F4000EF86E82
:100860000800F550096E0A6A0A50000AD8A424D07C
:1008700009502B0AD8B4EBD7060AD8B4E4D71CD059
:100880000EC501F50FC502F5000E046E0A0E036ECB
:10089000F6EC86F007C5F6F408C5F7F4000EF86E1E
:1008A0000800F550015E000E025A300E01240E6E53
:1008B000000E02200F6ECBD707C5F6F408C5F7F47B
:1008C000000EF86E0800F5C409F5D00E09240A6E72
:1008D0000B6AFF0E0B220B5004E10A0E0A5CD8A033
:1008E000CFD70C500D10D8A40DD00EC509F50FC5EB
:1008F0000AF5091E0A1E094A0A2A09C507F50AC58A
:1009000008F512000EC507F50FC508F51200050120
:1009100086A10AD014C50BF515C50CF512C50DF549
:1009200013C50EF57FEC86F017BE05D016C51BF576
:1009300017C51CF504D0000E1C6E000E1B6E000EB9
:100940001A6E000E196E0CD0000E036E200E026E91
:1009500012C504F513C505F57DEC85F0194A1A2A70
:100960001B50195C1A50800A186E1C50800A1858C7
:10097000D8A0EAD7050186B1120014C50BF515C53C
:100980000CF512C50DF513C50EF57FEC86F01200BF
:10099000B66FC8C4B9F5C290C850FC0BC86EC09001
:1009A000C294000E0501B86F000EB76FC092B6AFCB
:1009B00002D0C08001D0C090C082B651B625B66FBB
:1009C000B74BB82BB8BFF2D7B85104E1080EB75DEA
:1009D000D8A0ECD7000EB86F000EB76FC092B5AFBD
:1009E00002D0C08001D0C090C082B551B525B56F8E
:1009F000B74BB82BB8BFF2D7B85104E1080EB75DBA
:100A0000D8A0ECD7C284C280B9C5C8F41200026E67
:100A1000C8C4B9F5C290C850FC0BC86EC090C2944F
:100A2000000E046E000E036EC09202AE02D0C080B3
:100A300001D0C090C08202500224026E034A042AF0
:100A400004BEF2D7045004E1080E035CD8A0ECD732
:100A5000000E046E000E036EC09201AE02D0C08084
:100A600001D0C090C08201500124016E034A042AC3
:100A700004BEF2D7045004E1080E035CD8A0ECD702
:100A8000C284C280B9C5C8F4120008C588F588C5FB
:100A900005F5000EB3EC85F007C588F588C505F5AA
:100AA000010EB3EC85F00A500B10D8B40BD0800EB9
:100AB000016E040E07EC85F0800E016E030E07EC4C
:100AC00085F00AD0000E016E040E07EC85F0000ED2
:100AD000016E030E07EC85F009C505F5030EB3ECB6
:100AE00085F00D0E0D6E2D0E0C6ED80EE82EFED775
:100AF0000C2EFCD70D2EFAD7120004500510D8B4D6
:100B000004D004500510D8A404D002501BEC87F088
:100B1000120020EE09F00450D9260550DA22DE50EA
:100B2000DE10D8B416D020EE09F00450D9260550B6
:100B3000DA2210EE03F00450E1260550E222DE50E6
:100B4000E65CE650800A0A6EDE50800A0A58D8B089
:100B5000120020EE03F00450D9260550DA22DE2AD6
:100B6000000EDD221200066E05500F0B0501876F87
:100B7000BD0E8725F66EF76AFF0EF722F86A000EA3
:100B8000F8220800F5C401F50650FE0DF350070FDA
:100B900007EC85F005380F0B0501876FBD0E872523
:100BA000F66EF76AFF0EF722F86A000EF8220800C8
:100BB000F5C401F50650FE0DF350080F07EC85F063
:100BC0001200000EB56F010EC8EC84F0000EB56F78
:100BD000020EC8EC84F0000EB56F030EC8EC84F072
:100BE000000EB56F040EC8EC84F0000EB56F050E54
:100BF000C8EC84F0000EB56F060EC8EC84F0000E51
:100C0000B56F070EC8EC84F0000EB56F080EC8EC87
:100C100084F01200000E016E010E07EC85F0000E4C
:100C2000016E020E07EC85F0000E016E030E07EC5C
:100C300085F0000E016E040E07EC85F0000E016ECB
:100C4000050E07EC85F0000E016E060E07EC85F030
:100C5000000E016E070E07EC85F0000E016E080E07
:100C600007EC85F01200FF0E016E010E07EC85F017
:100C7000FF0E016E020E07EC85F0FF0E016E030EF3
:100C800007EC85F0FF0E016E040E07EC85F0FF0EF9
:100C9000016E050E07EC85F0FF0E016E060E07ECE7
:100CA00085F0FF0E016E070E07EC85F0FF0E016E5A
:100CB000080E07EC85F0120058C55CF559C55DF5C6
:100CC0000ED056C540F557C541F55C0E426E050E77
:100CD000436E5AC544F55BC545F537EC81F05CC5FC
:100CE000F6F45DC5F7F4000EF86E0800F550000943
:100CF000D8A4E7D7000E576E000E566E1200000EF5
:100D0000116E000E106E0BD00FC502F5036A0DC5F3
:100D100004F50EC505F57DEC85F0104A112A10503A
:100D20000B24D96E11500C20DA6EDF500F6E0F506D
:100D3000D8B41200E9D705EE00F114EE00F0EE6A27
:100D4000E550E150FCE1E250FAE101EE60F1490EBC
:100D5000EE6AE806FDE10401080E5D6F000E5E6FAD
:100D6000000E5F6F00016CEF82F0010E056E200E29
:100D700001180210D8B40ED0F70E0124036EFF0E36
:100D80000220046E045004E1050E035CD8A002D0DA
:100D9000000E056E05C501F5026A120060C505F575
:100DA000000EB3EC85F061C505F5010EB3EC85F0DE
:100DB00062C505F5020EB3EC85F063C505F5030EBB
:100DC000B3EC85F01200AB0E5E6E050E5F6E000E8A
:100DD000566E000E576EA9C558F5AAC559F55E0E98
:100DE0005A6E050E5B6E5CEC86F012000150030239
:100DF000F3C405F5F4C406F501500402F3500626C9
:100E000002500302F350062605C501F506C502F59A
:100E10001200D00E0124036EFF0E0220046E045057
:100E200006E10A0E035CD8B002D0010E01D0000E1C
:100E3000016E026A1200016EB7A2FED701C5C9F2A7
:020E400012009E
:020E440011009B
:020000040020DA
:10000000FF0FFF0FFF0FFF0FFF0FFF0FFF0FFF0F80
:10001000FF0FFF0FFF0FFF0FFF0FFF0FFF0FFF0F70
:10002000FF0FFF0FFF0FFF0FFF0FFF0FFF0FFF0F60
:10003000FF0FFF0FFF0FFF0FFF0FFF0FFF0FFF0F50
:020000040030CA
:0A0000008CFFFFF79FFFFFFFFFFFDB
:00000001FF
